:100000000C942A000C943F000C943F000C943F0089
:100010000C943F000C943F000C943F000C943F0064
:100020000C943F000C943F000C943F000C943F0054
:100030000C943F000C943F000C943F000C943F0044
:100040000C943F000C943F000C943F000C943F0034
:100050000C943F0011241FBECFE5D8E0DEBFCDBF1A
:1000600010E0A0E6B0E0E6EAF3E002C005900D92F1
:10007000A23CB107D9F70E9441000C94D1010C9425
:100080000000EF92FF920F931F93DF93CF93CDB7B2
:10009000DEB72B970FB6F894DEBF0FBECDBF6BEE69
:1000A00073E180E090E08E010F5F1F4FA8010E9476
:1000B00028010E94A90080E690E061E041E00E94F2
:1000C0001B0185E790E062E041E00E941B01C8014E
:1000D00064E041E00E941B0189EB90E064E048E0AD
:1000E00020E00E94810181EB90E064E049E021E0A2
:1000F0000E94810101E010E084E2E82E84EFF82EF6
:1001000010C087E890E063E0402F0E941B01C70108
:100110000197F1F780E263E0402F0E9403010F5F37
:100120001F4F053011056CF389E990E063E041E071
:100130000E941B0101E010E0F4CFC0988BBBC19A74
:1001400082EE94E0FC013197F1F7C1980197F1F745
:1001500008950F931F93B89AB99AC098C1988FEFDA
:100160008ABB1BBA88E893E10197F1F788E30E9404
:100170009D0082EE94E00197F1F78CE00E949D00D3
:100180000AEF10E0C8010197F1F781E00E949D009D
:1001900084EF91E00197F1F786E00E949D00C8018D
:1001A0000197F1F780E80E949D00C8010197F1F7DF
:1001B0001F910F910895C09A8BBBC19A82EE94E073
:1001C000FC013197F1F7C1980197F1F7089582305A
:1001D00069F0833018F48130A9F405C0833049F008
:1001E000843081F40BC0862F815805C0862F81543E
:1001F00002C0862F8D560E949D000895862F8D5235
:100200000E949D0008951F93182F862F642F0E942F
:10021000E700812F0E94DB001F910895CF93DF93A9
:10022000EC0103C021960E94DB0088818823D1F76E
:10023000DF91CF9108950F931F938C01862F642F28
:100240000E94E700C8010E940E011F910F910895BE
:10025000AF92BF92CF92DF92EF92FF921F93CF9314
:10026000DF936B017C015A016115710581059105D0
:1002700029F480E3FA018083118239C0C0E0D0E024
:10028000C701B6012AE030E040E050E00E94AF0133
:10029000162FC701B6012AE030E040E050E00E948E
:1002A000AF01C901DA016C017D01F501EC0FFD1F01
:1002B000105D10832196C114D104E104F10401F70B
:1002C000F501EC0FFD1F1082AE0141505040D501E9
:1002D00020E030E008C09C9180818D9390832F5F57
:1002E0003F4F41505040319724173507A4F3DF9119
:1002F000CF911F91FF90EF90DF90CF90BF90AF9084
:100300000895DF92EF92FF920F931F93CF93DF93A5
:100310007C01062FD42E122F2830C0F4822F880F94
:10032000880F880F805C0E949D00C0E0D0E0F7013C
:10033000EC0FFD1F80810E94DB002196C830D105A3
:10034000B1F7812F602F4D2D0E940301DF91CF91D6
:100350001F910F91FF90EF90DF9008950895A1E213
:100360001A2EAA1BBB1BFD010DC0AA1FBB1FEE1F2F
:10037000FF1FA217B307E407F50720F0A21BB30B7A
:10038000E40BF50B661F771F881F991F1A9469F7F6
:1003900060957095809590959B01AC01BD01CF0152
:0603A0000895F894FFCF60
:1003A60051313A4361706974616C206F662045670C
:1003B6007970743F00312920436169726F202032C1
:1003C6002920526F6D6500224D6F68616D6564204E
:1003D600456C73617965642200202020202020204E
:1003E6002020202020202020202020202020202007
:1003F60000000C1E1E1C18100000060F0F0703013C
:020406000000F4
:00000001FF
